:020000020000FC
:100000000FEF0DBF08E00EBF00E007B90FEF08B912
:100010000FE104B900E005B90FEF0AB900E00BB930
:1000200006B10E943A0006B100FF0E94380001FFAD
:100030000E94240002FF0E942C0003FF0E94340053
:1000400004FF0E943700ECCF09B10F702FE00217B8
:1000500081F003950BB9089509B10F7020E00217E4
:1000600041F01A951BB9089510EF19B90895089534
:10007000089508952FEF2A952030E9F72FEF2A955C
:0E0080002030E9F72FEF2A952030E9F7089598
:00000001FF
